:020000040800F2
:10000000600600200D020008490200084B020008AB
:100010004D0200084F0200085102000800000000D5
:100020000000000000000000000000005302000873
:10003000550200080000000057020008590200089D
:100040005B0200085B0200085B0200085B0200081C
:100050005B0200085B0200085B0200085B0200080C
:100060005B0200085B0200085B0200085B020008FC
:100070005B0200085B0200085B0200085B020008EC
:100080005B0200085B0200085B0200085B020008DC
:100090005B0200085B0200085B0200085B020008CC
:1000A0005B0200085B0200085B0200085B020008BC
:1000B0005B0200085B0200085B0200085B020008AC
:1000C0005B0200085B0200085B0200085B0200089C
:1000D0005B0200085B0200085B0200085B0200088C
:1000E0005B0200085B0200085B0200085B0200087C
:1000F0005B0200085B0200085B0200085B0200086C
:100100005B0200085B0200085B0200085B0200085B
:100110005B0200085B0200085B0200085B0200084B
:100120005B0200085B0200085B0200085B0200083B
:100130005B0200085B0200085B0200085B0200082B
:100140005B0200085B0200085B0200085B0200081B
:100150005B0200085B0200085B0200085B0200080B
:100160005B0200085B0200085B0200085B020008FB
:100170005B0200085B0200085B0200080000000050
:100180005B0200085B02000800F002F800F02EF8A5
:100190000AA090E8000C82448344AAF10107DA45E2
:1001A00001D100F023F8AFF2090EBAE80F0013F006
:1001B000010F18BFFB1A43F001031847380700006E
:1001C000480700000023002400250026103A28BF1D
:1001D00078C1FBD8520728BF30C148BF0B607047B9
:1001E0001FB500F059FB1FBD10B510BD00F085F81C
:1001F0001146FFF7F5FF00F0BDFA00F0A3F803B4D5
:10020000FFF7F2FF03BC00F0ABF8000016481749F7
:10021000174B99423CBF50F8042B41F8042BF8D3FC
:1002200014494FF000028B4238BF43F8042BFAD335
:10023000DFF84400016841F470010160BFF34F8FA3
:10024000BFF36F8F0D480047FEE7FEE7FEE7FEE7CE
:10025000FEE7FEE7FEE7FEE7FEE7FEE7084809499E
:10026000094A0A4B704700000409000800000020FA
:10027000000000206006002088ED00E089010008F1
:100280006000002060060020600200206002002064
:1002900010B5203AC0F00B80B1E81850203AA0E821
:1002A0001850B1E81850A0E81850BFF4F5AF5FEA55
:1002B000027C24BFB1E81850A0E8185044BF18C908
:1002C00018C0BDE810405FEA827C24BF51F8043BAF
:1002D00040F8043B08BF7047D20728BF31F8023B03
:1002E00048BF11F8012B28BF20F8023B48BF00F897
:1002F000012B7047704770477047754600F02CF827
:10030000AE4605006946534620F00700854618B002
:1003100020B5FFF7A3FFBDE820404FF000064FF0E7
:1003200000074FF000084FF0000B21F00701AC462A
:10033000ACE8C009ACE8C009ACE8C009ACE8C00949
:100340008D46704710B50446AFF300802046BDE8E7
:100350001040FFF754BF0000004870470000002025
:1003600001491820ABBEFEE72600020070470000DE
:100370000548C06C40F001000349C8640846C06CE1
:1003800040F01000C8647047001002404FF09040E9
:10039000006820F440604FF0904108600846C06853
:1003A00020F44060C86070474FF09040006820F033
:1003B00003004FF0904108600846006840F00100DB
:1003C00008600846006820F00C00086008460068D5
:1003D00040F0040008600846006820F03000086023
:1003E0000846006840F0100008600846006820F0E9
:1003F000C00008600846006840F0400008605548AA
:10040000006820F44010534908600846006840F432
:10041000801008600846006820F440000860084624
:10042000006840F4800008600846006820F04070D2
:1004300008600846006840F0807008600846006860
:1004400020F0406008600846006840F08060086066
:100450000846006820F0405008600846006840F0F8
:10046000805008600846006820F040400860084658
:10047000006840F0804008604FF09040406820F0F5
:1004800001004FF0904148600846406820F00200AB
:1004900048600846406820F004004860084640680C
:1004A00020F0080048602B48406820F4806029490B
:1004B00048600846406820F400604860084640688C
:1004C00020F4805048600846406820F4005048609E
:1004D0000846406820F4804048600846406820F4A0
:1004E000004048604FF09040C06820F003004FF09B
:1004F0009041C8600846C06820F00C00C8600846FB
:10050000C06820F03000C8600846C06820F0C00015
:10051000C8601048C06820F440100E49C860084602
:10052000C06820F44000C8600846C06820F04070F1
:10053000C8600846C06820F04060C8600846C068CF
:1005400020F04050C8600846C06820F04040C860B5
:10055000704700000010004848B94FF090414969C9
:100560000122824091434FF0904251615EE00128A8
:1005700009D14FF0904149690122824091434FF0E7
:100580009042516152E0022809D14FF090414969EF
:100590000122824091434FF09042516146E003288E
:1005A00009D14FF0904149690122824091434FF0B7
:1005B000904251613AE00A2807D11D494969012258
:1005C000824091431A4A516130E00B2807D1184903
:1005D0004A69012181408A4315494A6126E00C2875
:1005E00007D113494A69012181408A4310494A6170
:1005F0001CE00D2807D10E49496901228240914330
:100600000B4A516112E00E2807D1094949690122BC
:1006100082409143064A516108E00F2806D10449FF
:100620004A69012181408A4301494A6170470000BB
:100630000010004848B94FF09041496901228240BA
:1006400011434FF0904251615EE0012809D14FF013
:10065000904149690122824011434FF0904251611B
:1006600052E0022809D14FF09041496901228240AD
:1006700011434FF09042516146E0032809D14FF0F9
:10068000904149690122824011434FF090425161EB
:100690003AE00A2807D11D494969012282401143E5
:1006A0001A4A516130E00B2807D118494A690121E3
:1006B00081400A4315494A6126E00C2807D11349B5
:1006C0004A69012181400A4310494A611CE00D2812
:1006D00007D10E4949690122824011430B4A5161F9
:1006E00012E00E2807D109494969012282401143CD
:1006F000064A516108E00F2806D104494A690121E0
:1007000081400A4301494A617047000000100048D7
:1007100010B50024002303230AE0002403E0184658
:10072000FFF71AFF641C42F210708442F7DD5B1E73
:10073000002BF2DA10BD000030B58BB0002500248C
:1007400028220B4901A8FFF7A3FD06240BE0002592
:1007500005E001A951F82400FFF7FEFE6D1CB5F578
:100760007A6FF6DD641C092CF1DD0BB030BD0000A2
:10077000A40800088AB04FF00108282244496846BE
:10078000FFF786FD434D00260024FFF7F1FDFFF73C
:100790000BFEFFF7FBFD4FF09040006900F02007D3
:1007A00074E0B8F1010F71D1002431E000262CE093
:1007B0000FB1A5F5FA75B5F5FA7F01DC42F21075B7
:1007C0005DF82400FFF736FF042C02D10020FFF76C
:1007D000C3FE052C02D10120FFF7BEFE062C02D17C
:1007E0000220FFF7B9FE072C02D10320FFF7B4FE69
:1007F000082C02D10A20FFF7AFFE092C04D10B20F0
:10080000FFF7AAFE4FF00008761CAE42D0DD641C54
:10081000092CCBDDFFF790FFB8F1000F34D109248C
:1008200030E000262BE00FB1A5F5FA75B5F5FA7F9B
:1008300001DC42F210755DF82400FFF7FBFE052C89
:1008400002D10F20FFF788FE042C02D10E20FFF703
:1008500083FE032C02D10D20FFF77EFE022C02D175
:100860000C20FFF779FE012C02D10B20FFF774FE5C
:1008700024B90A20FFF770FE4FF00108761CAE4243
:10088000D1DD641E002CCCDAFFF742FF89E70000BF
:10089000CC08000880D1F0084FF04070E1EE100A5B
:1008A000704700000000000001000000020000008E
:1008B000030000000A0000000B0000000C00000014
:1008C0000D0000000E0000000F00000000000000FE
:1008D0000100000002000000030000000A00000008
:1008E0000B0000000C0000000D0000000E000000D6
:1008F0000F0000000409000800000020600600004E
:04090000C401000826
:040000050800018965
:00000001FF
